:04000000F1EF03F029
:0F0600000001000A006400E803102725640000D1
:100610000F0E126E000E136E7DD0250E1818D8B472
:1006200004D01850F6EC03F075D0000E146E0DC017
:10063000F6FF0EC0F7FF0D4A0E2A0800F5CF18F09E
:100640001850000AD8B41200640AD8B403D00D0AB6
:10065000D8A460D012C0D9FF13C0DAFFDECF16F0E5
:10066000DDCF17F0020E1226000E132217AE06D0B1
:10067000030E1412166C171ED8B0172A010E186E2E
:10068000050E1818D8B412D01850020D010EF3241C
:10069000F66E060EF420F76E0900F550165C0900A0
:1006A000F5501758D8A002D0182AEAD714C011F074
:1006B000030E1116D8B403D02D0EF6EC03F018C0BB
:1006C00015F024D01550020D010EF324F66E060E1F
:1006D000F420F76E0900F5CF03F00A00F5CF04F01F
:1006E00016C001F017C002F097EC03F001C008F04B
:1006F00002C009F0000E0B6E0A0E0A6EC0EC03F089
:100700000850300F186E1850F6EC03F01506152837
:10071000D8A4D8D70DC0F6FF0EC0F7FF0D4A0E2A99
:100720000800F5CF18F01850D8B4120076D7000E94
:10073000066E000E056E03500410D8B41CD0010ED6
:10074000076E04D0D89003360436072A04AEFAD7D1
:10075000D890053606360350015C04500258D8A0E4
:1007600005D00350015E0450025A0580D89004322F
:100770000332072EEDD705C001F006C002F01200CB
:100780000A500B10D8B418D0010E0C6E04D0D890BB
:100790000A360B360C2A0BAEFAD70A50085C0B50FF
:1007A0000958D8A004D00A50085E0B50095AD890B6
:1007B0000B320A320C2EF1D708C008F009C009F03C
:1007C0001200000E1A6E0A0E196E0B0E0D6E060E3A
:1007D0000E6E19C00FF01AC010F008EC03F000EF15
:0E07E00000F0000EF86E0001E1EF03F01200D1
:00000001FF
