:04000000B3EF17F053
:102F6000BAEC17F012000B6A0A6A096A086A0001D3
:102F7000C3EF17F0000E956E9250F00B926E8050DA
:102F8000F00B806E1200B0EC17F0E70E0B6E210E06
:102F90000A6ECB0E096E6B0E086E080E016E000EE7
:102FA000026ED4EC17F0F1D7000E076E030E076423
:102FB00001D012000750010DF3500124D96EF450D6
:102FC0000220DA6EDF50836E07C003F0010E046E3C
:102FD000032A02D0D8900436032EFCD78050F00B81
:102FE0000410806E030E066EE80E056E0506D8A06E
:102FF00006060528FBE10628D8A4F8D7072AD6D765
:00000001FF
