:0400000016EF17F0F0
:102E120094500F09946E12000F0EC16E000E816E57
:102E2200000E936E09EC17F01200000EF66E300ED3
:102E3200F76E000EF86E0900F5CF16F0000140EFB4
:102E420017F0016E0104D8A415D082500F0B0F0A9F
:102E5200D8B408D01650D8B405D0000E166E8250E1
:102E62000F0B120082500F0B0F0AD8A406D0010ECE
:102E7200166E03D00150D8B4F2D7FF0E12000DEC3B
:102E820017F0010E816E14C00BF0010E0C6E0B2AAE
:102E920002D0D8900C360B2EFCD70C508110816ECC
:102EA200010E106EF40E0F6E0CD0010E126EF40EA7
:102EB200116E1106D8A012061128FBE11228D8A41F
:102EC200F8D70F06D8A010060F28EFE11028D8A4D3
:102ED200ECD7144A152A010E22EC17F0136E135088
:102EE20089EC17F0130E0E6E880E0D6E0D06D8A02B
:102EF2000E060D28FBE10E28D8A4F8D7080E1418E8
:102F02001510D8A4C0D7000E156E000E146EBBD7D4
:102F1200086E0E0E0818D8A438D0000E816E000E6E
:102F22000A6E000E096E0A5030E1080E095CD8B034
:102F32002CD009C001F0800E026E000E036E012A31
:102F420003D0033403320232012EFBD70250811028
:102F5200816E010E056EF40E046E0CD0010E076E2A
:102F6200F40E066E0606D8A007060628FBE107281F
:102F7200D8A4F8D70406D8A005060428EFE105284E
:102F8200D8A4ECD7094A0A2ACED70D0E0818D8A41D
:102F92001200000E816E000E0A6E000E096E0A50BB
:102FA2002DE1080E095CD8B0120009C001F0010E33
:102FB200026E012A02D0D8900236012EFCD70250AE
:102FC2008110816E010E056EF40E046E0CD0010E9E
:102FD200076EF40E066E0606D8A007060628FBE169
:102FE2000728D8A4F8D70406D8A005060428EFE1DC
:0F2FF2000528D8A4ECD7094A0A2AD1D712000122
:020000040030CA
:08000000FF01191EFF8081FFC2
:00000001FF
