:040000000BEF00F012
:100008001182FACF01F0FBCF02F00DED00F071EF95
:1000180000F00600E9CF03F0EACF04F0E1CF05F0E5
:10002800E2CF06F0D9CF07F0DACF08F0F3CF09F026
:10003800F4CF0AF0F6CF0BF0F7CF0CF0F8CF0DF0B5
:10004800F5CF0EF0F2A419D0080ED624D66E000E05
:10005800D720D76E0F4A102A210E0F180DE14E0E29
:100068001018D8A409D0000E106E000E0F6E81B0C3
:1000780002D0818001D08190F2940EC0F5FF0DC0AE
:10008800F8FF0CC0F7FF0BC0F6FF0AC0F4FF09C069
:10009800F3FF08C0DAFF07C0D9FF06C0E2FF05C0BA
:1000A800E1FF04C0EAFF03C0E9FF02C0FBFF01C093
:1000B800FAFF11921100000E816E000E936E0E0E63
:1000C800C16E69EC00F0F28E1200D59A000ED76E60
:1000D800060ED66EF294F28A1200106A0F6A119018
:0E00E8001192000178EF00F05FEC00F0FFD7FE
:020000040030CA
:08000000FF01191EFF8081FFC2
:00000001FF
