:040000006BEF03F0AF
:100600000048656C6C6F0000000E016E05503BECFD
:1006100003F00CD0010E016E03C0F6FF04C0F7FF1B
:100620000800F5503BEC03F0034A042A03C0F6FF30
:1006300004C0F7FF0800F5500009D8B41200EAD74B
:10064000000E956E9450F80B946E8290000E016E21
:10065000380E3BEC03F0000E016E020E3BEC03F093
:10066000000E016E0C0E3BEC03F0000E016E010E4D
:100670003BEC03F01200026E01A002D0828201D096
:10068000829202C083FF82848294958E82808292BD
:100690008284829483BEFCD78290959E120072EC75
:1006A00003F0800E036E480E5FEC03F0010E036E44
:1006B000060E046EC40E056E04EC03F0F2D7046E51
:1006C000000E016E03503BEC03F0010E016E04506E
:1006D0003BEC03F01200000EF86E060EF76E000100
:0A06E0004FEF03F020EC03F01200CE
:020000040030CA
:08000000FF01191EFF8081FFC2
:00000001FF
