:04000000CFEF16F038
:102D840094500F09946E12000F0EC16E000E816EE6
:102D9400000E936EC2EC16F01200000EF66E300EAA
:102DA400F76E000EF86E0900F5CF0EF00001DBEFB0
:102DB40016F0C6EC16F0010EF8EC16F00D6E0E0EC1
:102DC4000D18D8B40CD00D0E0D18D8B408D00B0EB5
:102DD4000D18D8B404D0070E0D18D8A403D00DC014
:102DE4000BF00C6A0B5016EC17F0E5D7016E0104DA
:102DF400D8A415D082500F0B0F0AD8B408D00E50A7
:102E0400D8B405D0000E0E6E82500F0B1200825003
:102E14000F0B0F0AD8A406D0010E0E6E03D001507A
:102E2400D8B4F2D7FF0E1200046E0E0E0418D8A404
:102E340038D0000E816E000E0A6E000E096E0A5024
:102E440030E1080E095CD8B02CD009C001F0800E26
:102E5400026E000E036E012A03D0033403320232E1
:102E6400012EFBD702508110816E010E066EF40E06
:102E7400056E0CD0010E086EF40E076E0706D8A07E
:102E840008060728FBE10828D8A4F8D70506D8A027
:102E940006060528EFE10628D8A4ECD7094A0A2A31
:102EA400CED70D0E0418D8A435D0000E816E000EB6
:102EB4000A6E000E096E0A502DE1080E095CD8B0A6
:102EC40029D009C001F0010E026E012A02D0D89067
:102ED4000236012EFCD702508110816E010E066E5F
:102EE400F40E056E0CD0010E086EF40E076E070684
:102EF400D8A008060728FBE10828D8A4F8D70506B7
:102F0400D8A006060528EFE10628D8A4ECD7094A7C
:102F14000A2AD1D70B0E0418D8A437D08168000E22
:102F24000A6E000E096E0A5030E1080E095CD8B032
:102F34002CD009C001F07F0E026E000E036E012A30
:102F440003D0033403320232012EFBD70250811422
:102F5400816E010E066EF40E056E0CD0010E086E25
:102F6400F40E076E0706D8A008060728FBE1082818
:102F7400D8A4F8D70506D8A006060528EFE1062848
:102F8400D8A4ECD7094A0A2ACED7070E0418D8A425
:102F940012008168000E0A6E000E096E0A502DE1BF
:102FA400080E095CD8B0120009C001F0FC0E026ED4
:102FB400012A02D0D8900236012EFCD70250811487
:102FC400816E010E066EF40E056E0CD0010E086EB5
:102FD400F40E076E0706D8A008060728FBE10828A8
:102FE400D8A4F8D70506D8A006060528EFE10628D8
:0D2FF400D8A4ECD7094A0A2AD1D71200014F
:020000040030CA
:08000000FF01191EFF8081FFC2
:00000001FF
