:0400000096EF03F084
:1006000000456D657274786520496E666F726D6124
:1006100074696F6E20546563686E6F6C6F6769658F
:10062000732E20507265737320616E79206B65792B
:1006300020746F20636F6E74696E75650A0D0059C2
:100640006F752073686F756C6420676574206261D4
:10065000636B20776861746576657220796F7520A9
:10066000747970653A0A0D0057656C636F6D652E7D
:100670002054686973206973205541525420546591
:10068000737420436F64652E0A0D0000948E949C51
:10069000AC9EAC9CAC8AAC98AC96AC84AC92AC9062
:1006A000AB8EAB9CAB9AAB88AB96AB94AB92AB905A
:1006B000B89EB88CB898B896B892B890810EAF6EC4
:1006C0009D889E989D8A9E9A12000AD002C0F6FFCD
:1006D00003C0F7FF0800F550A4EC03F0024A032A18
:1006E00002C0F6FF03C0F7FF0800F5500009D8B4B8
:1006F0001200ECD78BEC03F0680E026E060E036E50
:1007000065EC03F03F0E026E060E036E65EC03F01F
:100710009DEC03F0FDD746EC03F0010E026E060ED1
:10072000036E65EC03F0AAEC03F01200000EF86E05
:10073000060EF76E00017AEF03F0AAEC03F0026EEA
:100740000250A4EC03F01200016E9EA8FED701C077
:0C075000ADFF12009EAAFED7AE501200B2
:020000040030CA
:08000000FF01191EFF8081FFC2
:00000001FF
