:0400000071EF17F095
:102EDC0078EC17F012000B6A0A6A096A086A00019A
:102EEC00ADEF17F0000E956E9250F00B926E805075
:102EFC00F00B806E1200000E076E030E076401D0FB
:102F0C0012000750010DF3500124D96EF450022029
:102F1C00DA6EDF50836E07C003F0010E046E032AD5
:102F2C0002D0D8900436032EFCD78050F00B04103E
:102F3C00806EEA0E066E600E056E0506D8A00606BB
:102F4C000528FBE10628D8A4F8D7072AD6D76EECBB
:102F5C0017F0E70E086E080E016E000E026E81EC83
:102F6C0017F0210E086E080E016E000E026E81EC39
:102F7C0017F0CB0E086E080E016E000E026E81EC7F
:102F8C0017F06B0E086E080E016E000E026E81ECCF
:102F9C0017F02D0E086E080E016E000E026E81ECFD
:102FAC0017F06E0E086E080E016E000E026E81ECAC
:102FBC0017F0EE0E086E080E016E000E026E81EC1C
:102FCC0017F0230E086E080E016E000E026E81ECD7
:102FDC0017F0EF0E086E080E016E000E026E81ECFB
:102FEC0017F06F0E086E080E016E000E026E81EC6B
:042FFC0017F0AFD744
:00000001FF
