:0400000023EF17F0E3
:102E1A0010EC17F01200000E956E9250F00B926EA5
:102E2A008050F00B806E1200E7002100CB006B008F
:102E3A002D006E00EE002300EF006F003D6A3C6A31
:102E4A003B6A3A6A320EF66E2E0EF76E000EF86E76
:102E5A0000EE26F010EE14F00900F5CFEEFFE55073
:102E6A00E150FAE1000176EF17F0000E086E000E4D
:102E7A00076E08BE06D0085033E1320E075CD8B0A0
:102E8A001200000E096E030E096401D026D0095003
:102E9A00010DF3500124D96EF4500220DA6EDF508E
:102EAA00836E09C003F0010E046E032A02D0D89083
:102EBA000436032EFCD78050F00B0410806E030EEC
:102ECA00066EE80E056E0506D8A006060528FBE183
:102EDA000628D8A4F8D7092AD6D7074A082AC9D76C
:102EEA0012000DEC17F020EE26F010EE0AF0130E89
:102EFA00DBCFE3FFE806FCE2000E216E090E206E2E
:102F0A00000E236E090E226E000E256E090E246E27
:102F1A00000E1F6E090E1E6E2006D8A0210620285C
:102F2A000AE12128D8A407D02206D8A02306000E39
:102F3A00216E090E206E22280AE12328D8A407D080
:102F4A002406D8A02506000E236E090E226E242818
:102F5A000AE12528D8A407D01E06D8A01F06000E0D
:102F6A00256E090E246E1E2813E11F28D8A410D03E
:102F7A00000E216E090E206E000E236E090E226EBF
:102F8A00000E256E090E246E000E1F6E090E1E6EAF
:102F9A00D8902034D96E2134DA6E0A0ED926000E62
:102FAA00DA22DF503D6ED8902234D96E2334DA6E9D
:102FBA000A0ED926000EDA22DF503C6ED89024344D
:102FCA00D96E2534DA6E0A0ED926000EDA22DF50BF
:102FDA003B6ED8901E34D96E1F34DA6E0A0ED9268B
:102FEA00000EDA22DF503A6E3A0E016E000E026EC1
:062FFA003AEC17F091D73C
:00000001FF
